S01C00005030315F615F696E6372656D656E7444656C61792E7372656384
S11300000C9434000C943E000C943E000C943E007E
S11300100C943E000C943E000C943E000C943E0064
S11300200C943E000C943E000C943E000C943E0054
S11300300C943E000C943E000C943E000C943E0044
S11300400C943E000C943E000C943E000C943E0034
S11300500C943E000C943E000C943E000C943E0024
S11300600C943E000C943E0011241FBECFEFD8E048
S1130070DEBFCDBF0E9444000C9453000C940000DA
S11300808FEF87B918B808950E9440002FEF81EED2
S113009094E0215080409040E1F700C0000088B116
S10D00A08F5F88B9F3CFF894FFCF07
S9030000FC
