:100000000C94FE000C940A010C940A010C940A0151
:100010000C940A010C940A010C940A010C940A0134
:100020000C940A010C940A010C940A010C940A0124
:100030000C940A010C940A010C940A010C940A0114
:100040000C940A010C940A010C940A010C940A0104
:100050000C940A010C940A010C940A010C940A01F4
:100060000C940A010C940A010C940A010C940A01E4
:100070000C940A010C940A010C940A010C940A01D4
:100080000C940A010C940A010C940A010C940A01C4
:100090000C940A010C940A010C940A010C940A01B4
:1000A0000C940A010C940A010C940A010C940A01A4
:1000B0000C940A010C940A010C940A010C940A0194
:1000C0000C940A010C940A010C940A010C940A0184
:1000D0000C940A010C940A010C940A010C940A0174
:1000E0000C940A010C940A010C940A010C940A0164
:1000F0000C940A010C940A010C940A010C940A0154
:100100000C940A010C940A010C9468010C94AC0143
:100110000C940A010C940A010C940A010C940A0133
:100120000C940A010C940A010C940A010C940A0123
:100130000C940A010C940A010C940A010C940A0113
:100140000C940A010C940A010C940A010C940A0103
:100150000C940A010C940A010C940A010C940A01F3
:100160000C940A010C940A010C940A010C940A01E3
:100170000C940A010C940A010C940A010C940A01D3
:100180000C940A010C940A010C940A010C940A01C3
:100190000C940A010C940A010C940A010C940A01B3
:1001A0000C940A010C940A010C940A010C940A01A3
:1001B0000C940A010C940A010C940A010C940A0193
:1001C0000C940A010C940A010C940A010C940A0183
:1001D0000C940A010C940A010C940A010C940A0173
:1001E0000C940A010C940A010C940A010C940A0163
:1001F0000C940A010C940A010C940A0111241FBEEC
:10020000CFEFCDBFDFE5DEBF00E00CBF0E94C40131
:100210000C94D5010C9400009FB7E0E5F0E08BEC66
:100220008283808188608083818183FFFDCFE0E5C8
:10023000F0E0858128ED24BF82EC85838081806198
:100240008083E0E4F0E08181807824BF8183E0E571
:10025000F0E0818184FFFDCFE0E4F0E08081887FE1
:10026000846028ED24BF8083E0E5F0E08081887F12
:100270008083E0EBF0E08481807F84839FBF0895DA
:10028000E0E0F6E014821082108A118A128A138A42
:10029000148A158A168A178A8185807F85608187EE
:1002A00081E0828780E883870895E0E2F6E01482A7
:1002B0008FEF8083108A118A128A138A148A158A12
:1002C000168A178A8185807F818712861386089512
:1002D0008091080680FD3FC0E0E2F6E08FEF848366
:1002E0002FEF3FEF91E1215030409040E1F700C007
:1002F000000014822FEF3FEF91E1215030409040F9
:10030000E1F700C0000084832FEF3FEF91E121501F
:1003100030409040E1F700C0000014822FEF3FEF23
:1003200091E1215030409040E1F700C0000084830B
:100330002FEF3FEF81E1215030408040E1F700C0D6
:10034000000014829FEF2FEF31E1915020403040A8
:10035000E1F700C0000018958091080688239CF002
:1003600024E130E0E0E2F6E084818F5F84834FEFA8
:100370008FEF91E1415080409040E1F700C00000D4
:100380002150310989F718950E940C010E94400103
:100390000E945501E0EAF0E082818873816098ED67
:0E03A00094BF828311827894FFCFF894FFCF30
:00000001FF
