S01400005030345F696E7465727275702E7372656384
S11300000C9434000C944C000C9459000C943E0055
S11300100C943E000C943E000C943E000C943E0064
S11300200C943E000C943E000C943E000C943E0054
S11300300C943E000C943E000C943E000C943E0044
S11300400C943E000C943E000C943E000C943E0034
S11300500C943E000C943E000C943E000C943E0024
S11300600C943E000C943E0011241FBECFEFD8E048
S1130070DEBFCDBF0E9466000C946C000C9400009F
S11300808FE187B91AB818B808958AE08093690097
S113009083E08DBB1CBA089588B18F5F88B92FEFB8
S11300A08FEF98E0215080409040E1F700C00000BD
S11300B0189588B1815088B92FEF8FEF98E02150BF
S11300C080409040E1F700C0000018950E94400075
S10F00D00E9445007894FFCFF894FFCF05
S9030000FC
