S01400005030335F70656532706565722E73726563E6
S11300000C9434000C946F000C9478000C9446000B
S11300100C9446000C9446000C9446000C94460044
S11300200C9446000C9446000C9446000C94460034
S11300300C9446000C9446000C9446000C94460024
S11300400C9446000C9446000C9481000C944600D9
S11300500C9446000C9446000C9446000C94460004
S11300600C9446000C94460011241FBECFEFD8E038
S1130070DEBFCDBF21E0A0E0B1E001C01D92A13000
S1130080B207E1F70E9487000C948F000C940000E3
S113009014B88FE387B982E08AB915B818B81BB8C9
S11300A008951092690083E08DBB8CBB10926800A8
S11300B01BBA10926D0010926C0010926B000895A0
S11300C01092C00088E98093C10086E08093C2004A
S11300D08FE590E09093C5008093C40008958091CB
S11300E0000191E0980F909300018093C600189549
S11300F0809100019FEF980F909300018093C600B8
S113010018958091C0008091C60088B918950E9406
S113011048000E9451000E9460007894FFCFF89438
S1050120FFCF0B
S9030000FC
