S01400005030355F504949525F696E742E737265631E
S11300000C9434000C943E000C944C000C943E0070
S11300100C943E000C943E000C943E000C943E0064
S11300200C943E000C943E000C943E000C943E0054
S11300300C943E000C943E000C943E000C943E0044
S11300400C943E000C943E000C943E000C943E0034
S11300500C943E000C943E000C943E000C943E0024
S11300600C943E000C943E0011241FBECFEFD8E048
S1130070DEBFCDBF0E945B000C9461000C940000B5
S113008081E084B91AB885B908958EE08093690037
S113009082E08DBB1CBA089515B82FEF3FEF86E7B9
S11300A091E02150304080409040D9F700C00000DA
S11300B081E085B918950E9440000E94450078941B
S10900C0FFCFF894FFCF0E
S9030000FC
