S01900005030325F636F6E74726F6C5F6D6F746F722E7372656369
S11300000C9434000C943E000C943E000C943E007E
S11300100C943E000C9471000C943E000C943E0031
S11300200C943E000C943E000C943E000C943E0054
S11300300C943E000C943E000C943E000C943E0044
S11300400C943E000C943E000C943E000C943E0034
S11300500C943E000C943E000C943E000C943E0024
S11300600C943E000C943E0011241FBECFEFD8E048
S1130070DEBFCDBF0E94A9000C94B4000C94000014
S113008084E084B983E087B91AB818B8089582E285
S11300908093800080E1809381001092820010920E
S11300A085001092840086EF90E0909387008093FF
S11300B08600109289001092880010928B00109292
S11300C08A0010926F0016BA089584E08093680045
S11300D01BBA88EF80936D0010926C0010926B0035
S11300E008954F9902C081E088B94E9902C082E018
S11300F088B94D9902C083E088B94C9915C08091A4
S11301008A0090918B00803F910539F480EF90E054
S113011090938B0080938A0007C0EAE8F0E0808126
S113012091814896918380834B9912C080918A0073
S113013090918B00009729F410928B0010928A0002
S113014007C0EAE8F0E08081918148979183808339
S113015018950E9440000E9447000E94650081E1BA
S10F0160809381007894FFCFF894FFCFC7
S9030000FC
