:100000000C94FE000C940A010C940A010C940A0151
:100010000C940A010C940A010C940A010C940A0134
:100020000C940A010C940A010C940A010C940A0124
:100030000C940A010C940A010C940A010C940A0114
:100040000C940A010C940A010C940A010C940A0104
:100050000C940A010C940A010C940A010C940A01F4
:100060000C940A010C940A010C940A010C940A01E4
:100070000C940A010C940A010C940A010C940A01D4
:100080000C940A010C940A010C940A010C940A01C4
:100090000C940A010C940A010C940A010C940A01B4
:1000A0000C940A010C940A010C940A010C940A01A4
:1000B0000C940A010C940A010C940A010C940A0194
:1000C0000C940A010C940A010C940A010C940A0184
:1000D0000C940A010C940A010C940A010C940A0174
:1000E0000C940A010C940A010C940A010C940A0164
:1000F0000C940A010C940A010C940A010C940A0154
:100100000C940A010C940A010C940A010C940A0143
:100110000C940A010C940A010C940A010C940A0133
:100120000C940A010C940A010C940A010C940A0123
:100130000C940A010C940A010C940A010C940A0113
:100140000C940A010C940A010C940A010C940A0103
:100150000C940A010C940A010C940A010C940A01F3
:100160000C940A010C940A010C940A010C94E2010B
:100170000C940A010C940A010C940A010C940A01D3
:100180000C940A010C940A010C940A010C940A01C3
:100190000C940A010C940A010C940A010C940A01B3
:1001A0000C940A010C940A010C940A010C940A01A3
:1001B0000C940A010C940A010C940A010C940A0193
:1001C0000C940A010C940A010C940A010C940A0183
:1001D0000C940A010C940A010C940A010C940A0173
:1001E0000C940A010C940A010C940A010C940A0163
:1001F0000C940A010C940A010C940A0111241FBEEC
:10020000CFEFCDBFDFE5DEBF00E00CBF0E9469028B
:100210000C9488020C9400009FB7E0E5F0E08BECB2
:100220008283808188608083818183FFFDCFE0E5C8
:10023000F0E0858128ED24BF82EC85838081806198
:100240008083E0E4F0E08181807824BF8183E0E571
:10025000F0E0818184FFFDCFE0E4F0E08081887FE1
:10026000846028ED24BF8083E0E5F0E08081887F12
:100270008083E0EBF0E08481807F84839FBF0895DA
:10028000E0E0F6E014828FEF8083108A118A128AF0
:10029000138A148A158A168A178A8185807F818736
:1002A00012861386A0E6B6E080E814968C93149725
:1002B0008C9350961C92509751961C92519752963F
:1002C0001C92529753961C92539754961C92549793
:1002D00055961C92559756961C92569757961C9277
:1002E000579719968C911997807F19968C93199727
:1002F0001A961C921A971B961C92A0E4B6E01496CC
:100300001C9214978FE08C9350961C9250975196A4
:100310001C92519752961C92529753961C92539747
:1003200054961C92549755961C92559756961C922B
:10033000569757961C9257978185807F19968C9374
:1003400019971A961C921A971B961C9208952FB70C
:10035000E0E0F8E010828CE0818785E0808383EF25
:1003600081831382148216821782A0E9B8E08C91EF
:100370008E7F8C938485848710A211A28FEF93E2E5
:1003800086A397A388EB90E080A791A782A793A765
:1003900084A795A786A797A72FBF089580E8809385
:1003A0006506E0EBF9E083E085838381807C8061F2
:1003B000838380EF86838BEC87838481807E886152
:1003C000848308958091B009823659F0833681F094
:1003D0008136A9F428EB30E02093280830932908CF
:1003E0002DC02DEC31E0209328083093290826C039
:1003F0002AE933E020932808309329081FC010927F
:10040000280810922908853659F0863681F08436FE
:10041000A9F428EB30E020932A0830932B082DC054
:100420002DEC31E020932A0830932B0826C02AE9CE
:1004300033E020932A0830932B081FC010922A081B
:1004400010922B08883659F0893681F08736A9F446
:1004500088EB90E080932C0890932D082DC08DECB4
:1004600091E080932C0890932D0826C08AE993E0B0
:1004700080932C0890932D081FC010922C08109286
:100480002D088B3659F08C3681F08A36A9F488EB2A
:1004900090E080932E0890932F0812C08DEC91E08D
:1004A00080932E0890932F080BC08AE993E08093E5
:1004B0002E0890932F0804C010922E0810922F0837
:1004C0001895E0EBF9E0918195FFFDCF8093B0099D
:1004D0000895E0EAF0E082818873816098ED94BF2E
:1004E000828311820E94A7010E940C010E94400198
:1004F0000E94CE01789481E60E9461022FEF8FEF77
:100500009AE1215080409040E1F700C00000F3CF15
:04051000F894FFCF8D
:00000001FF
