S01E00005030365F315F50574D465F54696D65725F536572766F2E7372656359
S11300000C9434000C943E000C943E000C943E007E
S11300100C943E000C943E000C943E000C943E0064
S11300200C943E000C943E000C943E000C943E0054
S11300300C943E000C943E000C943E000C943E0044
S11300400C943E000C943E000C943E000C943E0034
S11300500C943E000C943E000C943E000C943E0024
S11300600C943E000C943E0011241FBECFEFD8E048
S1130070DEBFCDBF0E9460000C9484000C9400008D
S113008082E88093800088E180938100109282004E
S113009010928500109284008FEF9FE89093870060
S11300A08093860083E397E090938900809388008F
S11300B010928B0010928A0010926F0016BA089565
S11300C082E084B90E9440008AE1809381002FEF8E
S11300D08FEF99E5215080409040E1F700C0000087
S11300E0E8E8F0E085E89BE0918380832FEF8FEFD1
S11300F099E5215080409040E1F700C0000087E47A
S10F010091E191838083FFCFF894FFCF3E
S9030000FC
