S01400004D435530305F70696E6F75742E73726563CD
S11300000C9434000C943E000C943E000C943E007E
S11300100C943E000C943E000C943E000C943E0064
S11300200C943E000C943E000C943E000C943E0054
S11300300C943E000C943E000C943E000C943E0044
S11300400C943E000C943E000C943E000C943E0034
S11300500C943E000C943E000C943E000C943E0024
S11300600C943E000C943E0011241FBECFEFD8E048
S1130070DEBFCDBF0E9445000C944A000C940000E2
S11300801AB88FE387B918B808950E94400089B15F
S10B009088B9FDCFF894FFCFFD
S9030000FC
