:100000000C9434000C943E000C943E000C943E0082
:100010000C943E000C943E000C943E000C943E0068
:100020000C943E000C943E000C943E000C943E0058
:100030000C943E000C943E000C943E000C943E0048
:100040000C943E000C943E000C943E000C943E0038
:100050000C943E000C9450000C943E000C943E0016
:100060000C943E000C943E0011241FBECFEFD8E04C
:10007000DEBFCDBF0E946F000C9475000C94000091
:100080008FEF8AB984B917B8089581EC80937C000A
:100090008FEE80937A0010927B0010927E0008957C
:1000A00080917800909179008B3F910558F0809174
:1000B000780090917900883521E0920718F488E063
:1000C0008BB90CC08091780090917900883521E03F
:1000D000920718F080E28BB901C015B818950E94FC
:0E00E00040000E9445007894FFCFF894FFCFB7
:00000001FF
