S01500005030365F50574D5F54696D65722E73726563A6
S11300000C9434000C943E000C943E000C943E007E
S11300100C943E000C943E000C943E000C943E0064
S11300200C943E000C943E000C943E000C943E0054
S11300300C943E000C943E000C943E000C943E0044
S11300400C943E000C943E000C943E000C943E0034
S11300500C943E000C943E000C943E000C943E0024
S11300600C943E000C943E0011241FBECFEFD8E048
S1130070DEBFCDBF0E9460000C9468000C940000A9
S113008082E88093800088E180938100109282004E
S113009010928500109284008FEF9FE89093870060
S11300A0809386008CEC94E690938900809388007A
S11300B010928B0010928A0010926F0016BA089565
S11300C082E084B90E9440008AE180938100FFCFDE
S10700D0F894FFCFCE
S9030000FC
