:100000000C94FE000C940A010C940A010C940A0151
:100010000C940A010C940A010C940A010C940A0134
:100020000C940A010C940A010C940A010C940A0124
:100030000C940A010C940A010C940A010C940A0114
:100040000C940A010C940A010C940A010C940A0104
:100050000C940A010C940A010C940A010C940A01F4
:100060000C940A010C940A010C940A010C940A01E4
:100070000C940A010C940A010C940A010C940A01D4
:100080000C940A010C940A010C940A010C940A01C4
:100090000C940A010C940A010C940A010C940A01B4
:1000A0000C940A010C940A010C940A010C940A01A4
:1000B0000C940A010C940A010C940A010C940A0194
:1000C0000C940A010C940A010C940A010C940A0184
:1000D0000C940A010C940A010C940A010C940A0174
:1000E0000C940A010C940A010C940A010C940A0164
:1000F0000C940A010C940A010C940A010C940A0154
:100100000C940A010C940A010C940A010C940A0143
:100110000C940A010C940A010C940A010C940A0133
:100120000C940A010C940A010C940A010C940A0123
:100130000C940A010C940A010C940A010C940A0113
:100140000C940A010C940A010C940A010C940A0103
:100150000C940A010C940A010C940A010C940A01F3
:100160000C940A010C940A010C940A010C940A01E3
:100170000C940A010C940A010C940A010C940A01D3
:100180000C940A010C940A010C940A010C940A01C3
:100190000C940A010C940A010C940A010C940A01B3
:1001A0000C940A010C940A010C940A010C940A01A3
:1001B0000C940A010C940A010C940A010C940A0193
:1001C0000C940A010C940A010C940A010C940A0183
:1001D0000C940A010C940A010C940A010C940A0173
:1001E0000C940A010C940A010C940A010C940A0163
:1001F0000C940A010C940A010C940A0111241FBEEC
:10020000CFEFCDBFDFE5DEBF00E00CBF0E9466018F
:100210000C9475010C9400009FB7E0E5F0E08BECC6
:100220008283808188608083818183FFFDCFE0E5C8
:10023000F0E0858128ED24BF82EC85838081806198
:100240008083E0E4F0E08181807824BF8183E0E571
:10025000F0E0818184FFFDCFE0E4F0E08081887FE1
:10026000846028ED24BF8083E0E5F0E08081887F12
:100270008083E0EBF0E08481807F84839FBF0895DA
:10028000E0E0F6E014821082108A118A128A138A42
:10029000148A158A168A178A8185807F818712863B
:1002A00013860895E0E2F6E0148280EF8083108ADE
:1002B000118A128A138A148A158A168A178A8091DB
:1002C0000906807F81871286138608950E940C019B
:1002D0000E9440010E945201A0E0B6E0E0E2F6E098
:0E02E00018968C9118978483FBCFF894FFCF6B
:00000001FF
