:100000000C9416010C9422010C9422010C942201F0
:100010000C9422010C9422010C9422010C942201D4
:100020000C9422010C9422010C9422010C942201C4
:100030000C9422010C9422010C9422010C942201B4
:100040000C9422010C9422010C9422010C942201A4
:100050000C9422010C9422010C9422010C94220194
:100060000C9422010C9422010C9422010C94220184
:100070000C9422010C9422010C9422010C94220174
:100080000C9422010C9422010C9422010C94220164
:100090000C9422010C9422010C9422010C94220154
:1000A0000C9422010C9422010C9422010C94220144
:1000B0000C9422010C9422010C9422010C94220134
:1000C0000C9422010C9422010C9422010C94220124
:1000D0000C9422010C9422010C9422010C94220114
:1000E0000C9422010C9422010C9422010C94220104
:1000F0000C9422010C9422010C9422010C942201F4
:100100000C9422010C9422010C9422010C942201E3
:100110000C9422010C9422010C9422010C942201D3
:100120000C9422010C9422010C9422010C942201C3
:100130000C9422010C9422010C9422010C942201B3
:100140000C9422010C9422010C9422010C942201A3
:100150000C9422010C9422010C9422010C94220193
:100160000C9491010C9422010C9422010C94220114
:100170000C9422010C9422010C9422010C94220173
:100180000C9422010C9422010C9422010C94220163
:100190000C9422010C9422010C9422010C94220153
:1001A0000C9422010C9422010C9422010C94220143
:1001B0000C9422010C9422010C9422010C94220133
:1001C0000C9422010C9422010C9422010C94220123
:1001D0000C9422010C9422010C9422010C94220113
:1001E0000C9422010C9422010C9422010C94220103
:1001F0000C9422010C9422010C942201A301A7016A
:10020000AB01AF01B301B701BB01BF010C94A70162
:100210000C94BF010C94A3010C94B7010C94BB0186
:100220000C94AB010C94B3010C94AF0111241FBECC
:10023000CFEFCDBFDFE5DEBF00E00CBF0E94CE01F7
:100240000C94F3010C9400009FB7E0E5F0E08BEC18
:100250008283808188608083818183FFFDCFE0E598
:10026000F0E0858128ED24BF82EC85838081806168
:100270008083E0E4F0E08181807824BF8183E0E541
:10028000F0E0818184FFFDCFE0E4F0E08081887FB1
:10029000846028ED24BF8083E0E5F0E08081887FE2
:1002A0008083E0EBF0E08481807F84839FBF0895AA
:1002B000E0E0F6E014828FEF8083108A118A128AC0
:1002C000138A148A158A168A178A8185807F818706
:1002D00012861386E0E6F6E088E084838083108A45
:1002E000118A128A138A148A158A168A178A8185B6
:1002F000807F818712861386089588E08093650643
:10030000E0EAF9E083E085838381807C80618383F8
:1003100080EF86838BEC87838481807E88618483F1
:100320000895E091A0098E2F90E0A0E0B0E0FC01DC
:10033000E156F109E830F10530F58827E250FF4F2A
:100340008F4F0C94EB0181E0809304061EC082E085
:10035000809304061AC084E08093040616C088E0E7
:100360008093040612C080E1809304060EC080E2F0
:10037000809304060AC080E48093040606C080E8E7
:100380008093040602C0109204061895E0EAF9E092
:10039000918195FFFDCF8093A0090895E0EAF0E0F8
:1003A00082818873816098ED94BF828311820E945C
:1003B00024010E9458010E947D01789481E60E94E8
:1003C000C6012FEF8FEF9AE1215080409040E1F776
:1003D00000C00000F3CFEE0FFF1F881F8BBF0790F8
:0A03E000F691E02D1994F894FFCF78
:00000001FF
