:100000000C94FE000C940A010C940A010C940A0151
:100010000C940A010C940A010C940A010C940A0134
:100020000C940A010C940A010C940A010C940A0124
:100030000C940A010C940A010C940A010C940A0114
:100040000C940A010C940A010C940A010C940A0104
:100050000C940A010C940A010C940A010C940A01F4
:100060000C940A010C940A010C940A010C940A01E4
:100070000C940A010C940A010C940A010C940A01D4
:100080000C940A010C940A010C940A010C940A01C4
:100090000C940A010C940A010C940A010C940A01B4
:1000A0000C940A010C940A010C940A010C940A01A4
:1000B0000C940A010C940A010C940A010C940A0194
:1000C0000C940A010C940A010C940A010C940A0184
:1000D0000C940A010C940A010C940A010C940A0174
:1000E0000C940A010C940A010C940A010C940A0164
:1000F0000C940A010C940A010C940A010C940A0154
:100100000C940A010C940A010C940A010C940A0143
:100110000C940A010C940A010C940A010C940A0133
:100120000C940A010C940A010C940A010C940A0123
:100130000C940A010C940A010C940A010C940A0113
:100140000C940A010C940A010C940A010C940A0103
:100150000C940A010C940A010C940A010C940A01F3
:100160000C9477010C940A010C940A010C940A0176
:100170000C940A010C940A010C940A010C940A01D3
:100180000C940A010C940A010C940A010C940A01C3
:100190000C940A010C940A010C940A010C940A01B3
:1001A0000C940A010C940A010C940A010C940A01A3
:1001B0000C940A010C940A010C940A010C940A0193
:1001C0000C940A010C940A010C940A010C940A0183
:1001D0000C940A010C940A010C940A010C940A0173
:1001E0000C940A010C940A010C940A010C940A0163
:1001F0000C940A010C940A010C940A0111241FBEEC
:10020000CFEFCDBFDFE5DEBF00E00CBF0E94920163
:100210000C94A5010C9400009FB7E0E5F0E08BEC96
:100220008283808188608083818183FFFDCFE0E5C8
:10023000F0E0858128ED24BF82EC85838081806198
:100240008083E0E4F0E08181807824BF8183E0E571
:10025000F0E0818184FFFDCFE0E4F0E08081887FE1
:10026000846028ED24BF8083E0E5F0E08081887F12
:100270008083E0EBF0E08481807F84839FBF0895DA
:10028000E0E0F6E014828FEF8083108A118A128AF0
:10029000138A148A158A168A178A8185807F818736
:1002A000128613860895E0E6F6E0148288E08083E3
:1002B000108A118A128A138A148A158A168A178A52
:1002C00080910906807F818712861386089588E0D1
:1002D00080936506E0EAF9E083E0858380E183832B
:1002E00080EF86838BE0878388E184830895809103
:1002F000A009813629F0853639F0823369F408C0C7
:1003000091E0909304060BC092E09093040607C01E
:1003100094E09093040603C098E0909304068093C1
:10032000A0091895E0EAF0E082818873816098ED79
:1003300094BF828311820E940C010E9440010E949E
:0E03400053010E9467017894FFCFF894FFCF1D
:00000001FF
