S01700005030335F315F4C65644D61747269782E73726563E1
S11300000C9434000C9451000C9451000C94510045
S11300100C9451000C9451000C9451000C94510018
S11300200C9451000C9451000C9451000C94510008
S11300300C9451000C9451000C9451000C945100F8
S11300400C9451000C9451000C9451000C945100E8
S11300500C9451000C9451000C9451000C945100D8
S11300600C9451000C94510011241FBECFEFD8E022
S1130070DEBFCDBF11E0A0E0B1E0E0E3F1E002C0FB
S113008005900D92AA30B107D9F721E0AAE0B1E0BA
S113009001C01D92A031B207E1F70E9453000C94F5
S11300A096000C9400008FEF8AB987B980E188B973
S11300B010920D0110920C0140E110920F01109268
S11300C00E0180E090E0E0910A01F0910B019F01A4
S11300D0220F331F220F331FE20FF31FE80FF91F04
S11300E0EE0FFF1FE050FF4F80818BB989EF90E046
S11300F00197F1F700C0000088B1869588B9809116
S11301000E0190910F01019690930F0180930E01BF
S113011085309105C4F248B980910C0190910D018C
S1130120019690930D0180930C01C7CFF894FFCFF3
S10D0130000000001400100010008D
S9030000FC
