S01100005030375F536572766F2E73726563EE
S11300000C9434000C943E000C943E000C943E007E
S11300100C943E000C943E000C943E000C943E0064
S11300200C943E000C943E000C943E000C943E0054
S11300300C943E000C943E000C943E000C943E0044
S11300400C943E000C943E000C943E000C943E0034
S11300500C943E000C943E000C943E000C943E0024
S11300600C943E000C943E0011241FBECFEFD8E048
S1130070DEBFCDBF0E9460000C9484000C9400008D
S113008082E28093800088E1809381001092820054
S113009010928500109284008FEF9FE89093870060
S11300A08093860010928900109288008EE19FE070
S11300B090938B0080938A0010926F0016BA089573
S11300C084E084B90E9440008AE1809381002FEF8C
S11300D08FEF99E5215080409040E1F700C0000087
S11300E0EAE8F0E08CE599E0918380832FEF8FEFCD
S11300F099E5215080409040E1F700C000008CE475
S10F010094E091838083FFCFF894FFCF3C
S9030000FC
